:020000040800F2
:1000000098320020C1010008E5010008E70100085E
:10001000E9010008EB010008ED010008EF0100080C
:10002000EF010008EF010008EF010008EF010008F0
:10003000EF010008EF01000835090008B13B000896
:10004000D312000875110008ED1100089311000883
:10005000C11000087F1100087B10000885100008FF
:1000600099100008A3100008AD100008BB0F00088D
:10007000C50F0008CF0F0008D90F0008E30F0008D4
:10008000ED0F0008F70F00084D0F0008750F00086E
:10009000570F0008610F00086B0F0008B710000829
:1000A000F7110008151200080B12000801120008D1
:1000B0001F1200082912000833120008F31000086C
:1000C000E910000807110008FD100008B111000830
:1000D000BB11000897120008A1120008AB1200081B
:1000E0008F10000889110008431100085B120008F6
:1000F000791200086F12000865120008011000084C
:10010000D5100008A71100083D120008C51100080D
:10011000B5120008BF12000847120008511200086B
:10012000151000081F1000082910000833100008DF
:100130003D10000867100008711000089D0F0008AE
:100140007F0F0008890F0008930F0008391100087D
:1001500047100008511000085B100008C912000881
:100160001B11000811110008611100085711000847
:100170006B1100084D110008B10F0008A70F00080F
:10018000DF100008CB100008831200088D12000851
:10019000CF110008D9110008E31100089D110008D3
:1001A000251100082F1100080B100008DFF80CD0F3
:1001B00000F01EFB004800476568000898320020E8
:1001C000DFF83000016841F470010160BFF34F8F28
:1001D000DFF82400016821F040410160BFF36F8F18
:1001E00006480047FEE7FEE7FEE7FEE7FEE7FEE71C
:1001F000FEE7000088ED00E034EF00E0AD0100080C
:1002000072B6704762B67047EFF3108072B67047EF
:1002100080F31088704730BF704720BF7047B0FA36
:1002200080F0704790FAA0F0B0FA80F0704790FA32
:10023000A0F070472DE9FE4F804681EA0300C00F11
:100240000C46009021F0004123F00045B8EB02007D
:10025000A94105D24046214690461C460B4602461F
:1002600023F00040104347D0270DC7F30A00C3F323
:100270000A510290401A019040286BDAC3F3130030
:1002800040F4801B0098924620B10023D2EB030A71
:1002900063EB0B0B01985946C0F14002504600F049
:1002A000B1F906460D4650465946019A00F0C9F983
:1002B00010EB08006141002487EA115284EAE773D9
:1002C0001A4340D0009A62B3019A012A4FEA0752BA
:1002D00015DC001B61EB02014FF0004202EA0752FD
:1002E000CDE90042001C41F5801132462B4600F05A
:1002F00000FA03B0BDE8F08F40462146F9E7001B45
:1003000061EB0201001C41F5801300185B412018CD
:10031000A2F5001747EB030140EAD570B6196D410D
:1003200011E06D084FEA360645EAC0754FEA0752FC
:10033000001B61EB0201001C41F5801149084FEAE6
:1003400030000019514132462B4603B0BDE8F04F52
:1003500000F0C0B90098012240000023D0EB020257
:1003600063EBE073009821464FEAE074B8EB0000BD
:1003700061EB0401E9E783F000435BE781F00041B2
:1003800058E72DE9FE4F81EA030404F0004421F010
:10039000004100944FF0000B23F0004350EA0104A9
:1003A0005ED052EA03045BD0C3F30A54C1F30A558A
:1003B0002C44A4F2F3340194A0FB0254C1F31301C2
:1003C00041F48011C3F3130343F4801301FB02448F
:1003D00000FB034E840A970A44EA815447EA835794
:1003E000A4FB076802958D0A05FB07854FEA932C4D
:1003F00004FB0C542705029D4FEA065847EA1637BE
:10040000B5EB08056EEB070C870E920E47EA8117D5
:1004100042EA8312A7FB0201B6EB0B0164EB000476
:100420002B0D43EA0C335E1844EB1C50DA46514660
:10043000E7FB0201C5F313044FEA0B3343EA1453FD
:100440004FEA0432019C43EA0603A4F10C0402942F
:10045000009CCDE900B400F04CF903B0BDE8F08F8A
:1004600000200146F9E72DE9F04D81EA030404F08C
:10047000004B21F0004514464FF0000A23F00041E4
:1004800050EA050220D054EA01021DD0C5F30A57F4
:100490000246C5F31303C1F31300C1F30A5640F437
:1004A000801543F48013A7EB0608101BD64608F20C
:1004B000FD3873EB050002D308F1010801E0921842
:1004C0005B41B8F1000F03DA00200146BDE8F08D72
:1004D00000204FF48011064684460EE0171B73EB94
:1004E000050705D3121B63EB050306434CEA010C19
:1004F00049084FEA300092185B4150EA0107EDD1FC
:1005000052EA030012D082EA040083EA050108439C
:1005100005D0101BAB4106D20122002306E00022C9
:100520004FF0004302E06FF0010253101AEB060097
:100530004CEB085110EB0A0041EB0B01BDE8F04D0C
:1005400000F0C8B800F0004230F000400AD0C10D01
:1005500001F56071C0F3160042EA0151C20840077C
:1005600011437047002001467047000030B5041E5B
:1005700071F1000404DB4FF00044404264EB0101E0
:10058000141E73F1000405DB1C464FF00043524279
:1005900063EB04038B4208BF824230BD30B5041EBA
:1005A00071F1000404DB4FF00044404264EB0101B0
:1005B000141E73F1000405DB1C464FF00043524249
:1005C00063EB0403994208BF904230BD01F0004341
:1005D00030B421F0004150EA010206D00A0DA2F524
:1005E0006072C1F31301002A02DC30BC00207047A6
:1005F000440F44EAC104C100E01830BC00EBC25013
:1006000000F031B8202A04DB203A00FA02F1002081
:1006100070479140C2F1200320FA03F31943904040
:100620007047202A04DB203A21FA02F000217047AB
:1006300021FA02F3D040C2F120029140084319464A
:100640007047202A06DBCB17203A41FA02F043EA32
:10065000E07306E041FA02F3D040C2F1200291407B
:100660000843194670470029A8BF7047401C49003D
:1006700008BF20F00100704710B4B0FA80FC00FA07
:100680000CF050EA010404BF10BC704749B1CCF132
:10069000200421FA04F411FA0CF118BF01212143BE
:1006A0000843A3EB0C01CB1D4FEA00614FEA102079
:1006B00042BF002010BC704700EBC350104400291B
:1006C000A4BF10BC7047401C490008BF20F00100C7
:1006D00010BC704710B5141E73F1000408DA401CFA
:1006E00041F1000192185B411A4301D120F0010051
:1006F00010BD2DE9F04D92469B4611B1B1FA81F241
:1007000002E0B0FA80F220329046FFF77BFF044609
:100710000F4640EA0A0041EA0B0153465A46084395
:1007200013D0114653EA010019D0C8F140025046D7
:10073000FFF777FF05460E46504659464246FFF7FB
:1007400061FF084305D0012004E020463946BDE89A
:10075000F08D0020054346EAE0762C4337430A98A3
:100760006305E40AA0EB08000022FD0A44EA4754AE
:100770000A3002D500200146E9E701051019694158
:10078000DDE9084500196941BDE8F04DA2E70EB565
:10079000C10F80EAE0700844CA07002140F23343E9
:1007A0008DE80E000A460B46FFF7A3FF03B000BD1D
:1007B00070B5C1F30A5201F000450024C1F31301E2
:1007C00040F2FF3341F480119A4201DA002070BDFB
:1007D00040F233439A42A2F2334203DC5242FFF723
:1007E00020FF00E090402C43F1D0404270BD00005B
:1007F000064C074D06E0E06840F0010394E807006E
:1008000098471034AC42F6D3FFF7D4FC506C000884
:10081000706C00080EB540F2334102910021CDE921
:1008200000110A460B46FFF764FF03B000BD70B528
:100830008C1810F8015B15F0070301D110F8013B8B
:100840002A1106D110F8012B03E010F8016B01F812
:10085000016B5B1EF9D12B0705D40023521E0DD46A
:1008600001F8013BFAE710F8013BCB1A921C03E0B8
:1008700013F8015B01F8015B521EF9D5A142D8D3F0
:10088000002070BDEFF3098141B1F1EE101A40F87C
:10089000041D20ED200A3B490A6810607047B0EC47
:1008A000200A02C8E1EE101A37490A681060704742
:1008B00072B64EF62250CEF2000040F2FF01C0F2B6
:1008C0000001017040F28010C2F20000016881F363
:1008D000088840F2F600C2F2000040F2F701C2F2CE
:1008E00000010A78027040F27815C2F2000540F269
:1008F0007C11C2F200010A682A60106880F309883E
:10090000EFF3148040F0020080F31488BFF36F8F80
:10091000BDE8F00F0FBCBDE8005006BC62B608474A
:100920001A484FF080510160704718484FF08051CD
:100930000160704772B6EFF3098020E9F00F40F2D2
:100940007815C2F200052E683060744602F090FF00
:1009500040F2F600C2F2000040F2F701C2F20001DC
:100960000A78027040F27C11C2F200010A682A6023
:1009700044F0F40E1068B0E8F00F80F3098862B616
:1009800070470000780100207C01002004ED00E0A9
:100990007047000000B58BB00AA80721002205921D
:1009A000CDE90621089011464FF400720848D0F8AE
:1009B000CC00074BCDE90130CDE903210420002311
:1009C000044A05A10090084802F0A0FA0BB000BD4F
:1009D00008050020410A0008465020204571756135
:1009E00074696F6E20310000480400200EB500F0DD
:1009F000FBF900F0A7FD01F021F800F095FD02A839
:100A000002F002FAFFF7C4FFFFF7C4FF17E000206F
:100A100000F08CFC02A8002164230A46CDE90010F6
:100A2000084602F0D3FF012000F080FC02A800215C
:100A300064230A46CDE90010084602F0C7FFE6E746
:100A40002DED108B82B0B0E1DFEDD89AB0EE080A40
:100A5000B0EE408AB1EE000AB0EE409A38EE490A94
:100A6000F0EE408A0027F5EEC08AF1EE10FA11D2BE
:100A700018EE900AFFF766FD41EC1B0B9FEDCC0BC7
:100A800053EC102BFFF77DFC41EC1A0BFFF79EFD9A
:100A900008EE900A68E138EE090A10EE101A0846CE
:100AA000FFF750FD41EC1B0B9FEDC30B53EC102BDC
:100AB000FFF7D9FC41EC1A0BFFF788FD044618EE4E
:100AC000100AFFF73FFD41EC1D0BB0EE4D0AF0EEB2
:100AD0006D0A05F00DF8B0EE40CAF0EE60CA9FED69
:100AE000B80B53EC102B51EC1C0BFFF74AFC41ECFC
:100AF0001B0B18EE100AFFF725FD41EC1D0BB0EEA5
:100B00004D0AF0EE6D0A05F003FAB0EE40CAF0EEC1
:100B100060CA9FEDAD0B53EC102B51EC1C0BFFF793
:100B200030FC41EC1F0B53EC1B2BFFF724FC41EC7A
:100B30001E0B18EE100AFFF705FD41EC1C0B9FED94
:100B40009C0B53EC102BFFF71CFC41EC1B0BB0EE85
:100B50004B0AF0EE6B0A05F02FF8B0EE40AAF0EE6B
:100B600060AA53EC1E2B51EC1A0BFFF70AFCCDE9DF
:100B700000019DED000B51EC100BFFF727FD054622
:100B80002046FFF7DFFC41EC1D0BB0EE4D0AF0EE06
:100B90006D0A04F0ADFFB0EE40CAF0EE60CA9FED02
:100BA000880B53EC102B51EC1C0BFFF7EAFB41ECCC
:100BB0001E0B2046FFF7C6FC41EC1D0BB0EE4D0AA4
:100BC000F0EE6D0A05F0A4F9B0EE40CAF0EE60CA8E
:100BD0009FED7D0B53EC102B51EC1C0BFFF7D1FB61
:100BE00041EC1B0B53EC1E2BFFF7C5FB41EC1A0B22
:100BF0002046FFF7A7FC41EC1C0B9FED6D0B53EC5F
:100C0000102BFFF7BEFB41EC1B0BB0EE4B0AF0EED6
:100C10006B0A04F0D1FFB0EE40FAF0EE60FA53EC4C
:100C20001A2B51EC1F0BFFF7ACFBCDE900019DED3A
:100C3000000B51EC100BFFF7C9FC06462846FFF7E6
:100C400081FC41EC1A0B9FED620B53EC102BFFF76C
:100C5000A5FC0BD23046FFF775FC41EC1A0B9FED5B
:100C60005C0B53EC102BFFF781FC17D32846FFF7E2
:100C700069FC41EC1A0B9FED560B53EC102BFFF760
:100C800075FC0ED23046FFF75DFC41EC1A0B9FED70
:100C9000500B53EC102BFFF781FC02D209EE104AE7
:100CA00033E02846FFF74EFC41EC1A0B9FED480B52
:100CB00053EC102BFFF772FC0BD23046FFF742FCCF
:100CC00041EC1A0B9FED420B53EC102BFFF766FC27
:100CD00017D32846FFF736FC41EC1A0B9FED3C0B6F
:100CE00053EC102BFFF742FC0ED23046FFF72AFCE4
:100CF00041EC1A0B9FED360B53EC102BFFF736FC33
:100D000002D208EE104A00E04BE038EE490AF0EE5D
:100D1000408AF5EEC08AF1EE10FA11D218EE900A70
:100D2000FFF710FC41EC1B0B9FED210B53EC102B3C
:100D3000FFF727FB41EC1A0BFFF748FC08EE900A7F
:100D4000781CC7B201F0CCFA80464FF47A70B8FB39
:100D5000F0F100FB118801E0A8F10108B8F1000FE3
:100D6000FAD1102F00D91CE018EE900AFFF7EAFB29
:100D700041EC1A0B19EE900AFFF7E4FB41EC1C0B57
:100D80009FED0D0B53EC102BFFF7FBFA41EC1B0B07
:100D900053EC1A2BFFF7EAFBFFF47DAE142F3FF65E
:100DA0007AAE00BF102F00D100BF4DE6ACC527378B
:100DB000000000000000F0BF000000000000004044
:100DC000000000000000E03F9A9999999999094024
:100DD00000000000000000001FB5684604F05EFC43
:100DE000019804B010BD000070B500F077FA4048DB
:100DF000006840F001003E49086000203C4908318D
:100E000008603B4800683B490840394908603A4857
:100E1000091D0860081F006820F48020091F086071
:100E20000846006820F47F0008600846006840F427
:100E30008030086000BF6D1CB5F5A06F0AD22C4849
:100E4000006800F4003010B900BF012000E000206D
:100E50000028F0D1B5F5A06F00D170BD0024244862
:100E60000830046824F0F00400BF0460046824F42F
:100E7000604444F400440460046824F4E05444F4FE
:100E8000A05404601D481A49091D0860081F006825
:100E900040F08070091F086000BF1548006800F02E
:100EA000007010B900BF012000E000200028F4D13C
:100EB0001348006840F005001149086008460068C2
:100EC00040F4E06008600A480830006840F0020022
:100ED00007490831086000BF05480830006800F085
:100EE0000C000828F8D1012004F04CFC00BFB4E746
:100EF00000380240FFFFF6FE10300024085440077F
:100F0000003C024010B5FFF77BF910BD70B50446F8
:100F1000002600BF00BFFFF777F9064600BF00BFFD
:100F200001F07EFB00BF00BF3046FFF771F900BF44
:100F300000BF5B2C04D2044850F8245005B1A847E8
:100F400001F084FB70BD0000480D002010B5122098
:100F5000FFF7DCFF10BD10B51420FFF7D7FF10BD61
:100F600010B51520FFF7D2FF10BD10B51620FFF702
:100F7000CDFF10BD10B51320FFF7C8FF10BD10B591
:100F80004020FFF7C3FF10BD10B54120FFF7BEFFA3
:100F900010BD10B54220FFF7B9FF10BD10B53F20BE
:100FA000FFF7B4FF10BD10B54F20FFF7AFFF10BD26
:100FB00010B54E20FFF7AAFF10BD10B50B20FFF7AC
:100FC000A5FF10BD10B50C20FFF7A0FF10BD10B598
:100FD0000D20FFF79BFF10BD10B50E20FFF796FF09
:100FE00010BD10B50F20FFF791FF10BD10B51020F8
:100FF000FFF78CFF10BD10B51120FFF787FF10BD64
:1010000010B52F20FFF782FF10BD10B55A20FFF753
:101010007DFF10BD10B53820FFF778FF10BD10B56B
:101020003920FFF773FF10BD10B53A20FFF76EFFB0
:1010300010BD10B53B20FFF769FF10BD10B53C2077
:10104000FFF764FF10BD10B54420FFF75FFF10BD30
:1010500010B54520FFF75AFF10BD10B54620FFF729
:1010600055FF10BD704710B53D20FFF74FFF10BD75
:1010700010B53E20FFF74AFF10BD10B50620FFF760
:1010800045FF10BD10B50720FFF740FF10BD10B59C
:101090002820FFF73BFF10BD10B50820FFF736FFF3
:1010A00010BD10B50920FFF731FF10BD10B50A20A3
:1010B000FFF72CFF10BD10B51720FFF727FF10BD5D
:1010C00010B50420FFF722FF10BD10B55120FFF727
:1010D0001DFF10BD10B53020FFF718FF10BD10B573
:1010E0005020FFF713FF10BD10B52020FFF70EFFB3
:1010F00010BD10B51F20FFF709FF10BD10B522204D
:10110000FFF704FF10BD10B52120FFF7FFFE10BD53
:1011100010B54920FFF7FAFE10BD10B54820FFF7C3
:10112000F5FE10BD10B55820FFF7F0FE10BD10B54C
:101130005920FFF7EBFE10BD10B54320FFF7E6FE88
:1011400010BD10B52A20FFF7E1FE10BD10B54D20EF
:10115000FFF7DCFE10BD10B54B20FFF7D7FE10BD2A
:1011600010B54A20FFF7D2FE10BD10B54C20FFF796
:10117000CDFE10BD10B50120FFF7C8FE10BD10B5A3
:101180000520FFF7C3FE10BD10B52920FFF7BEFEF6
:1011900010BD10B50320FFF7B9FE10BD10B55720E4
:1011A000FFF7B4FE10BD10B53120FFF7AFFE10BD44
:1011B00010B52320FFF7AAFE10BD10B52420FFF7BD
:1011C000A5FE10BD10B53320FFF7A0FE10BD10B571
:1011D0005420FFF79BFE10BD10B55520FFF796FE7B
:1011E00010BD10B55620FFF791FE10BD10B50220BE
:1011F000FFF78CFE10BD10B51820FFF787FE10BD5D
:1012000010B51B20FFF782FE10BD10B51A20FFF7A6
:101210007DFE10BD10B51920FFF778FE10BD10B58A
:101220001C20FFF773FE10BD10B51D20FFF76EFEEA
:1012300010BD10B51E20FFF769FE10BD10B532209D
:10124000FFF764FE10BD10B53620FFF75FFE10BD3E
:1012500010B53720FFF75AFE10BD10B52B20FFF751
:1012600055FE10BD10B52E20FFF750FE10BD10B575
:101270002D20FFF74BFE10BD10B52C20FFF746FECA
:1012800010BD10B55220FFF741FE10BD10B5532020
:10129000FFF73CFE10BD10B52520FFF737FE10BD4F
:1012A00010B52620FFF732FE10BD10B52720FFF73E
:1012B0002DFE10BD10B53420FFF728FE10BD10B56F
:1012C0003520FFF723FE10BD10B54720FFF71EFEA7
:1012D00010BD10B50020FFF719FE10BD10B5002499
:1012E00004E00449204600F007F8641C5B2CF8D3A6
:1012F00010BD00006510000870B504460D460026BC
:101300005B2C10D200BF00BFFEF77EFF064600BF79
:1013100000BF054840F8245000BF00BF3046FEF72C
:1013200077FF00BF00BF70BD480D0020014611B11E
:1013300001291CD10DE00F4A106880F0080000F070
:1013400008020C4B1B1D1A80082282439B1C1A802A
:101350000EE0084A106880F0100000F01002054B03
:101360001B1D1A80102282439B1C1A8000E000BFC4
:1013700000BF7047140C0240672873D034DC1A2871
:1013800065D00FDC6DD2DFE800F04F50515253545E
:101390005556575859CB5ACBCBCBCBCB5BCB5C5D9F
:1013A0005E5FCB60272862D00BDCA0F11B010C290B
:1013B000E8D2DFE801F04D4B4E4FB558B5B5B55901
:1013C0005A5B63286ED008DC40285CD0602866D069
:1013D000612865D0622844D163E0642863D0652821
:1013E00062D06628F7D160E0A0F168013329C9D244
:1013F000DFE801F05D96965E96965F6096616263A7
:1014000064656667966869966A6B6C6D797A96967C
:101410007B7C96967D7E7F8081828396848586966E
:101420008788899696968A0000BF00BF00BF00BFDC
:1014300000BF00BF00BF00BF00BF00BF00BF00BFB4
:1014400000BF00BF00BF00BF00BF00BF00BF00BFA4
:1014500000BF00BF33490968012282401143314A6D
:1014600011605DE022E000BF00BF00BF00BF2D495A
:10147000091D0968A0F12002012393401943294A5C
:10148000121D11604CE0274908310968A0F14002A3
:10149000012393401943234A0832116040E000BF02
:1014A00000BF00BF00BF00BF00BF00BF00BF00BF44
:1014B00000BF00BF00BF00BF00BF00BF00BF00BF34
:1014C00000BF00BF00BF00BF00BF00BF00BF154985
:1014D00010310968A0F16002012393401943114AB9
:1014E000103211601CE000BF00BF00BF00BF00BF92
:1014F00000BF00BF00BF00BF00BF00BF00BF00BFF4
:1015000000BF00BF00BF00BF064914310968A0F149
:101510008002012393401943024A1432116000BF34
:1015200000BF70473038024070B5FFF755FC0446E5
:1015300003480068B4FBF0F5284602F055FB70BD87
:10154000386900081CB50020FFF716FF2020009026
:1015500000208DF8040001208DF8060000208DF891
:10156000070002208DF805006946FE4800F044FEA1
:101570004FF40070009000208DF8040001208DF8D9
:10158000060002208DF807008DF805006946F54831
:1015900000F032FE08220021F24800F075FE082219
:1015A0000121F04800F070FE03220221ED4800F016
:1015B0006BFE03221146EB4800F066FE092206216D
:1015C000E84800F061FE09220721E64800F05CFED1
:1015D00007220A21E34800F057FE0A220B21E148C6
:1015E00000F052FE0A220C21DE4800F04DFE0122DE
:1015F0000F21DC4800F048FE49F6CD400090022063
:101600008DF8040000208DF806008DF807000320F7
:101610008DF805006946D34800F0EEFD0120FFF784
:10162000ABFE02220021D04800F02EFE0222012152
:10163000CD4800F029FE05220321CB4800F024FE0E
:1016400005220421C84800F01FFE05221146C648A5
:1016500000F01AFE04220621C34800F015FE042201
:101660000721C14800F010FE03220821BE4800F007
:101670000BFE03220921BC4800F006FE04220A21C9
:10168000B94800F001FE04220B21B74800F0FCFD30
:1016900009220C21B44800F0F7FD09220D21B248BF
:1016A00000F0F2FD09220E21AF4800F0EDFD092205
:1016B0000F21AD4800F0E8FD4FF6FB7000900220CE
:1016C0008DF8040000208DF806008DF80700032037
:1016D0008DF805006946A44800F08EFD0220FFF752
:1016E0004BFE4FF40050009001208DF804000020C4
:1016F0008DF8060001208DF8070002208DF8050006
:1017000069469A4800F078FD4FF40051974800F080
:10171000E0FD4FF48040009001208DF8040000208F
:101720008DF8060002208DF807008DF80500694647
:101730008E4800F061FD4FF480418C4800F0C7FDF9
:101740000F20009003208DF8040000208DF8070082
:101750006946864800F050FD02220621834800F0C9
:1017600093FD02220721814800F08EFD0C22082102
:101770007E4800F089FD0C2209217C4800F084FDA0
:101780000C220A21794800F07FFD0C220B217748BA
:1017900000F07AFD0C221146744800F075FD4FF4FC
:1017A000FE50009002208DF8040000208DF8060005
:1017B0008DF8070003208DF8050069466B4800F09E
:1017C0001BFD0320FFF7D8FD9820009001208DF825
:1017D000040000208DF8060001208DF8070002208B
:1017E0008DF805006946624800F006FD0821604852
:1017F00000F06FFD10215E4800F06BFD80215C4819
:1018000000F067FD09220021594800F03DFD092242
:101810000121574800F038FD0C220221544800F005
:1018200033FD07220521524800F02EFD0722062134
:101830004F4800F029FD072208214D4800F024FD03
:10184000072209214A4800F01FFD02220C214848C6
:1018500000F01AFD02220D21454800F015FD02227C
:101860000E21434800F010FD02220F21404800F0F5
:101870000BFD4FF26730009002208DF8040000202D
:101880008DF806008DF8070003208DF805006946E5
:10189000374800F0B1FC0420FFF76EFD18200090DF
:1018A00001208DF8040000208DF8060001208DF83D
:1018B000070002208DF8050069462E4800F09CFCC8
:1018C00010212C4800F005FD08212A4800F001FDF8
:1018D0004FF41440009000208DF8040001208DF892
:1018E000060000208DF8070002208DF805006946EB
:1018F000204800F081FC082200211E4800F0C4FCB2
:10190000082201211B4800F0BFFC052202211948D2
:1019100000F0BAFC05221146164800F0B5FC05227D
:101920000621144800F0B0FC08220721114800F0FD
:10193000ABFC082211460F4800F0A6FC0122092149
:101940000C4800F0A1FC01220B210A4800F09CFC8D
:1019500001220D21074800F097FC01220E210548C5
:101960000AE00000000002400004024000080240BB
:10197000000C02400010024000F086FC46F6E73002
:10198000009002208DF8040000208DF806008DF8EC
:10199000070003208DF805006946274800F02CFC5D
:1019A0008820FFF7E9FC6020FFF7E6FC8420FFF7C2
:1019B000E3FC7320FFF7E0FC7E20FFF7DDFC7F20D7
:1019C000FFF7DAFC7220FFF7D7FC7120FFF7D4FC99
:1019D0009120FFF7D1FC9220FFF7CEFC6720FFF7A4
:1019E000CBFC6820FFF7C8FC6620FFF7C5FC902001
:1019F000FFF7C2FC6120FFF7BFFC6220FFF7BCFCD1
:101A00008020FFF7B9FC7520FFF7B6FC7620FFF7C2
:101A1000B3FC8C20FFF7B0FC8D20FFF7ADFC8B20D2
:101A2000FFF7AAFC7920FFF7A7FC7A20FFF7A4FCB8
:101A30002720FFF7A1FC1CBD0010024000B589B0B3
:101A4000F0480088ADF818000020ADF81A00ED4805
:101A5000408807900020ADF8200006A9EA4803F06E
:101A6000EDFFE848C088ADF818000020ADF81A0076
:101A7000E448008907900020ADF8200006A9E3485B
:101A800003F0DCFFDF488089ADF818000020ADF8D6
:101A90001A00DC48C08907900020ADF8200006A994
:101AA000DB4803F0CBFFD748408AADF81800002090
:101AB000ADF81A00D348808A07900020ADF82000C6
:101AC0008DF8220006A9D34803F0B8FFCD48008B5B
:101AD000ADF818000020ADF81A00CA48408B0790F6
:101AE0000020ADF8200006A9CB4803F0A7FFC548A9
:101AF000C08BADF818000020ADF81A00C148008C6A
:101B000007900020ADF8200006A9C44803F096FF16
:101B1000BC48808CADF818000020ADF81A00B94818
:101B2000C08C07900020ADF8200006A9BC4803F047
:101B300085FFB448408DADF818000020ADF81A00BC
:101B4000B048808D07900020ADF8200006A9B54868
:101B500003F074FFAB48008EADF818000020ADF81C
:101B60001A00A848408E07900020ADF8200006A972
:101B7000AD4803F063FF7020ADF804000120ADF81C
:101B800006000020ADF808000220ADF81000082083
:101B9000ADF812000020ADF81400ADF8160001A950
:101BA000994803F01DFE01A9974803F061FE01A9C1
:101BB000954803F0AFFE01A9934803F0FBFE01A98D
:101BC000924803F00DFE01A9904803F051FE01A9CF
:101BD0008F4803F005FE01A98D4803F049FE01A9D5
:101BE0008C4803F0FDFD01A98A4803F041FE01A9DC
:101BF000884803F08FFE01A9864803F0DBFE01A9A7
:101C0000854803F0EDFD01A9834803F031FE01A9E9
:101C1000814803F07FFE01A97F4803F0CBFE7020CE
:101C2000ADF804000120ADF806000020ADF810006A
:101C300001A97A4803F0D4FD01A9794803F0D0FD49
:101C400001A9784803F0CCFD01A9774803F0C8FD4D
:101C500008216D4803F002FE01216B4803F098FD56
:101C600008216A4803F0FAFD0121684803F090FD5D
:101C70000821674803F0F2FD0121654803F088FD63
:101C80000821644803F0EAFD0121624803F080FD69
:101C90000821614803F0E2FD01215F4803F078FD6F
:101CA00008215E4803F0DAFD01215C4803F070FD75
:101CB00008215B4803F0D2FD0121594803F068FD7B
:101CC0000821584803F0CAFD0121564803F060FD81
:101CD0000821554803F0C2FD0121534803F058FD87
:101CE0000121494803F060FD0121484803F05CFDF3
:101CF0000121474803F058FD0121464803F054FDF7
:101D00000121444803F05CFD0121434803F04CFDF0
:101D10000121424803F048FD0121414803F044FD00
:101D20000121404803F040FD01213F4803F03CFD04
:101D30004FF6FF7000F07AF843F69821324803F02E
:101D400079FE43F69821304803F076FE43F6982159
:101D50002D4803F06BFE43F698212B4803F068FEF4
:101D600043F69821294803F061FE43F6982127485D
:101D700003F05EFE43F69821254803F057FE43F634
:101D80009821234803F054FE45F6C051214803F042
:101D90004DFE45F6C0511F4803F04AFE45F6C051BE
:101DA0001C4803F047FE45F6C0511A4803F044FEB4
:101DB00045F6C051184803F039FE45F6C0511648A3
:101DC00003F036FE45F6C051134803F033FE45F6E6
:101DD000C051114803F030FE4DF2F021104803F0DD
:101DE00025FE4DF2F0210D4803F020FE42F6E061A1
:101DF0000C4803F01BFE42F6E0610B4803F016FEB0
:101E000009B000BD00000020000400400040014077
:101E1000001800400000014000080040001C004085
:101E200000200040004401400048014010B5014638
:101E300001F00102002A21D0C14A5279002A77D14B
:101E4000BF4A1279002A75D1BE4AD2ED000ABFEE10
:101E5000001AF4EEC10AF1EE10FA08D3D2ED000A2E
:101E6000B7EE001AF4EEC10AF1EE10FA07DDB44A3B
:101E7000D278B54B9B885A43B44B1A605EE1B04BA5
:101E80009B78AF4C24781A1B02EBD273581000EEEB
:101E9000900AF8EEE00AB0EE600AAA4AD2ED000A13
:101EA00060EE800AB0EE600AA54A527800EE902AF1
:101EB000F8EE600A70EE800AB0EE600AA04A9278EE
:101EC00000EE902AF8EE600AF4EEC00AF1EE10FA85
:101ED00008D29B4A927800EE902AF8EE600AB0EEA3
:101EE000600A14E0964A127800EE902AF8EE600A32
:101EF000F4EEC00AF1EE10FA08DD914A127800EE15
:101F0000902AF8EE600AB0EE600A00E000BF8E4A48
:101F1000928800EE902AF8EE600A60EE800AB0EE39
:101F2000600AFCEEC00A10EE902A884B1A6005E1A8
:101F300046E0FFE7834AD2ED000AF5EEC00AF1EE73
:101F400010FA08D3D2ED000AB7EE001AF4EEC10A77
:101F5000F1EE10FA07DD7A4AD2787B4B9B885A4320
:101F60007A4B1A60EAE0764A9278754B1B78D01A61
:101F700000EE900AF8EEE00AB0EE600A714AD2ED87
:101F8000000A60EE800AB0EE600A6D4A127800EE38
:101F9000902AF8EE600A70EE800AB0EE600A6A4A93
:101FA000928800EE902AF8EE600A60EE800AB0EEA9
:101FB000600AFCEEC00A10EE902A644B1A60BDE085
:101FC0005F4A1279002A74D15E4AD2ED000ABFEE50
:101FD000001AF4EEC10AF1EE10FA08D3D2ED000AAD
:101FE000B7EE001AF4EEC10AF1EE10FA07DD544A1A
:101FF000D278554B9B885A43544B1A609EE0504B05
:102000001B784F4CA4781A1B02EBD273581000EEC9
:10201000900AF8EEE00AB0EE600A4A4AD2ED000AF1
:1020200060EE800AB0EE600A454A527800EE902ACF
:10203000F8EE600A70EE800AB0EE600A404A9278CC
:1020400000EE902AF8EE600AF4EEC00AF1EE10FA03
:1020500008D23B4A927800EE902AF8EE600AB0EE81
:10206000600A14E0364A127800EE902AF8EE600A10
:10207000F4EEC00AF1EE10FA08DD314A127800EEF3
:10208000902AF8EE600AB0EE600A00E000BF2E4A27
:10209000928800EE902AF8EE600A60EE800AB0EEB8
:1020A000600AFCEEC00A10EE902A284B1A6045E048
:1020B000FFE7244AD2ED000AF5EEC00AF1EE10FA6D
:1020C00008D3D2ED000AB7EE001AF4EEC10AF1EE21
:1020D00010FA07DD1A4AD2781B4B9B885A431B4BD8
:1020E0001A602BE0164A1278154B9B78D01A00EE36
:1020F000900AF8EEE00AB0EE600A124AD2ED000A49
:1021000060EE800AB0EE600A0D4A927800EE902AE6
:10211000F8EE600A70EE800AB0EE600A0A4A928811
:1021200000EE902AF8EE600A60EE800AB0EE600AD7
:10213000FCEEC00A10EE902A044B1A6010BD00009D
:1021400036000020080D0020000000203C04004064
:1021500010B500F021F800F019F810BD10B50024FA
:1021600000BF00BFFEF750F8044600BF00BF1021BB
:10217000054800F0F3F800BF00BF2046FEF748F81E
:1021800000BF00BF10BD0000B40E002010B5FFF767
:10219000E5FF10BD00BFFEE710B500200249086052
:1021A00000F00AF810BD0000A800002001490860F6
:1021B00070470000A800002010B5FEF70DFE044691
:1021C0000848006840F08070064908600020064911
:1021D00048600846006840F0010008602046FFF7AC
:1021E000E5FF10BDFCED00E0001000E0014948688B
:1021F00070470000001000E0F0B50A4600210023FF
:10220000002400BF3DE0012505FA01F3156805EA49
:1022100003049C4234D105684F000326BE40B543F9
:10222000056015794E00B54006683543056015799F
:10223000012D02D01579022D16D185684F00032695
:10224000BE40B543856055794E00B540866835433C
:102250008560456801268E40B5434560456896799E
:102260008E40B6B235434560C5684F000326BE4078
:10227000B543C560D5794E00B540C6683543C560E5
:10228000491C1029BFD3F0BDF0B5002300244D0731
:10229000ED0E02FA05F3CE1000F1200555F8265098
:1022A0004E07F70E0F26BE40B543CF1000F12006B3
:1022B00046F82750CE1000F1200555F8265045EA83
:1022C0000304CE1000F1200545F82640F0BD4183FF
:1022D00070470183704710B5012000F029F810BD48
:1022E00070B5002600BF00BFFDF78EFF064600BF99
:1022F00000BF08480568284600F00EF80446054867
:10230000046000BF00BF3046FDF782FF00BF00BF82
:10231000204670BDAC000020014643F23902034B59
:1023200003FB012222F00040704700006D4EC641C1
:1023300070B50446002500BF00BFFDF765FF0546E8
:1023400000BF00BF0448046000BF00BF2846FDF77F
:102350005FFF00BF00BF70BDAC00002030B5054678
:102360000C4622460021284600F05EF830BD0000F1
:102370003EB500200C4908600C4C02A801214FF426
:1023800040632246CDE9001009490AA000F016F882
:10239000BDF8080042F21071884203D000BFFFF779
:1023A000F9FE00BF3EBD0000B0000020C40E0020BA
:1023B000C41A002048656170000000002DE9F84F44
:1023C00005460E4617461C46DDE90A894FF0000A0D
:1023D00000BF00BFFDF718FF824600BF00BF4346A5
:1023E0003A4631462846009400F00EF800BF00BF80
:1023F0005046FDF70DFF00BF00BF42F21070A9F874
:102400000000BDE8F88F000030B5039C0A60651E2F
:1024100015444D608A60034D2D68CD600B61014D00
:10242000296030BDB00000202DE9F04105460B4683
:1024300094460027002402E03F021F43641C042C42
:10244000FAD3604605F00306294646B1344603E058
:1024500001F8013B401E641C08B1042CF8D30A4665
:1024600001E080C2001F0428FBD2114602E001F8FF
:10247000013B401E0028FAD1BDE8F0817047000002
:1024800010B50348006810B101480068804710BDCE
:10249000C800002070B5044600F0AEF800204149A5
:1024A0000870414908704149087041490860414934
:1024B0000860414908704149087041490870414924
:1024C000086041490860414908604148006858B1C6
:1024D0004048056845B13E48066803E0761E002086
:1024E00028602D1D002EF9D100203B4908603B4992
:1024F00008603B4908603B4908603B4908603B492C
:1025000008603B4908603B49087001F05DFF01F03D
:1025100097FF204601F054FC208800B170BD204692
:1025200001F0B4FC208800B1F8E7204601F0BAFCC5
:10253000208800B1F2E7204601F08CFD208800B130
:10254000ECE7204601F070FF208800B1E6E7204666
:1025500002F036F8208800B1E0E7204602F0DCFA0D
:10256000208800B1DAE7204601F058FC208800B14D
:10257000D4E7204602F010FF208800B1CEE72046C5
:1025800002F09EF9208800B1C8E7204602F068FFFB
:10259000208800B1C2E701F03FFBFFF76FFF00BFEB
:1025A000BCE70000DC000020DD000020100100205E
:1025B000780100207C010020F6000020F7000020B8
:1025C000F800002004010020080100200C01002078
:1025D0000869000804690008BC000020C000002051
:1025E000C4000020C8000020CC000020D000002043
:1025F000D40000203E010020064800680649096812
:1026000000EB8100054908600846006820F00700DB
:10261000086070470469000808690008800100200C
:1026200008480078012800D0704707480078FA2849
:1026300000DBF9E704480078401C0349087000BF3C
:10264000F2E70000DD000020DC00002010B50024CF
:102650002D480078012800D010BD00BFFDF7D4FD43
:10266000044600BF2948007828B900BF2046FDF77E
:10267000CFFD00BFF0E725480078401E23490870D1
:1026800008460078002805DD00BF2046FDF7C0FDA4
:1026900000BFE1E71E480078002805DD00BF2046A6
:1026A000FDF7B6FD00BFD7E701F07AFE19490870C3
:1026B0000846007800EB4000174951F82000174900
:1026C00008600846006816490968884205D100BFBD
:1026D0002046FDF79DFD00BFBEE710480068D0F81A
:1026E0008C00401C0D490968C1F88C000D48006839
:1026F000401C0C490860FEF718F900BF2046FDF7A2
:1027000087FD00BF00BFA7E7DD000020DC00002040
:1027100010010020F7000020242900207C01002067
:1027200078010020340100202DE9F04104460E46D6
:102730001546002724B945F6C3502880BDE8F0812E
:1027400000BF00BFFDF760FD074600BF00BF104897
:102750002060666000202062606284F82800E062E9
:1027600004F1080001F027FD204601F003FC0948B0
:102770000088401C0749088000BF00BF3846FDF7AD
:1027800047FD00BF00BF0020288000BFD6E7000043
:102790004D555458F40000202DE9F04788B0054607
:1027A000894617461C46109E4FF0000A2DB945F683
:1027B000C350308008B0BDE8F0871FB1B7F5004FB7
:1027C00002D100E000BF03E045F625603080F1E76C
:1027D00000BF62492868884203D045F6C450308063
:1027E000E8E70CB10020206000BF00BFFDF70CFD42
:1027F000824600BF00BF95F82800B8B95848006865
:102800006862012085F828000CB1E86A206029463A
:102810005348006801F0C6FB00BF00BF5046FDF7FB
:10282000F7FC00BF00BF00203080C3E74C49686A56
:102830000968884212D195F82800401C85F82800C4
:102840000CB1E86A206000BF00BF5046FDF7E0FC15
:1028500000BF00BF45F282703080ABE707F4004054
:1028600050B100BF00BF5046FDF7D2FC00BF00BF13
:1028700046F2B01030809DE73A48007800280ADD23
:1028800000BF00BF5046FDF7C3FC00BF00BF46F6C7
:10289000635030808EE7D5F8248098F837003049AF
:1028A000096891F83710884206DD2D48006890F8D5
:1028B0003710404602F080F84B460422294668460D
:1028C00001F0D4FB00BF00BF5046FDF7A1FC00BFE4
:1028D00000BF00F00FF900BF00BFFDF795FC824676
:1028E00000BF00BF1E48006890F8350030B10128D5
:1028F0000CD002281AD0032821D110E01CB11848AE
:102900000068806C2060002030801CE01CB11448FE
:102910000068806C206046F2A910308013E00CB192
:102920000020206047F2D92030800CE01CB10C4818
:102930000068806C206045F6C250308003E046F6A7
:102940002E60308000BF00BF00BF00BF5046FDF7C3
:102950005FFC00BF00BF00BF2CE700004D5554587E
:1029600078010020100100202DE9F84F0446894627
:1029700015464FF0000B24B945F6C3502880BDE83A
:10298000F88FB9F1000F03D0B9F5004F02D100E084
:1029900000BF03E045F625602880F0E700BF5249FC
:1029A0002068884203D045F6C4502880E7E700BF7E
:1029B00000BFFDF729FC834600BF00BF4B49606A9A
:1029C000096888420AD000BF00BF5846FDF720FCC6
:1029D00000BF00BF45F281702880D0E7FFF706FCFA
:1029E00080462834C4F804802078401E207014F8F3
:1029F000280900280ADD00BF00BF5846FDF708FC83
:102A000000BF00BF45F283702880B8E721463748F1
:102A1000006801F011FB04F1080ABAF8080068B96F
:102A20000020606284F8280000BF00BF5846FDF710
:102A3000EFFB00BF00BF00202880A0E72B48006804
:102A400090F837002949096891F83810884228D051
:102A50002648006801F0DAFA06462448006890F833
:102A60003810B14204DA2148006890F8380000E0DC
:102A7000304606461D48006890F83700B04210DA2C
:102A80001A48006801F042FD1848006880F8376075
:102A9000304601F0A5FC1548006801F019FD144806
:102AA0000670DAF8000087686762012084F8280061
:102AB0002146384601F076FA00231A463946204668
:102AC000CDF8008001F0EAFB00BF00BF5846FDF7DB
:102AD0009FFB00BF00BF09F4004008B900F00AF8EE
:102AE0000020288000BF4AE74D5554587801002047
:102AF000F600002010B5002420480078002800DDF2
:102B000010BD1F480078002800DDF9E700BFFDF781
:102B10007BFB044600BF01F043FC1A4908700846DD
:102B2000007800EB4000184951F820001749086070
:102B30000846006816490968884205D100BF20464A
:102B4000FDF766FB00BFDBE710480068D0F88C009B
:102B5000401C0E490968C1F88C000E480068401CF2
:102B60000C490860FDF7DCFE00BF2046FDF750FB76
:102B700000BFBFF36F8F00BFC2E70000DC00002082
:102B800010010020F7000020242900207C010020F3
:102B9000780100203401002070B504460025144857
:102BA0000078012803D045F68960208070BD114867
:102BB0000078FA2803DB45F209202080F6E700BF01
:102BC00000BFFDF721FB054600BF00BF09480078A4
:102BD000401C0849087001F0C7FC00BF00BF284630
:102BE000FDF716FB00BF00BF0020208000BFDDE71F
:102BF000DD0000201001002070B5044600251C48AF
:102C00000078012803D045F68960208070BD1948FE
:102C1000007818B946F664502080F7E700BF00BF7F
:102C2000FDF7F2FA054600BF00BF12480078401ECB
:102C3000104908700846007800280ADD00BF00BF70
:102C40002846FDF7E5FA00BF00BF46F66350208036
:102C5000DCE701F097FC00BF00BF2846FDF7D8FA7B
:102C600000BF00BFFFF746FF0020208000BFCDE778
:102C7000DD0000201001002010B504461248007845
:102C8000E8B901F08DFB1149087008460078104939
:102C900008700E48007800EB40000E4951F8200003
:102CA0000D490860084600680C4908600120064983
:102CB0000870FDF7FDFD43F69920208002E045F6FF
:102CC0008A60208010BD0000DD000020F700002099
:102CD000F6000020242900207C010020780100203B
:102CE0002DE9F04107464FF0000800BF00BFFDF797
:102CF0008BFA804600BF00BF00203B4908803B495B
:102D000008603B4908603B4908603B4908603B4913
:102D1000088100BF00BF4046FDF77AFA00BF00BF40
:102D200000BF00BFFDF770FA804600BF00BF344807
:102D3000046800BF00BF4046FDF76AFA00BF00BF4D
:102D400021E000BF00BFFDF75FFA804600BF00BF73
:102D500000207434E06320602063A061A082E082E0
:102D60006062A062FFF742FA2062743C04F16006E0
:102D70000020B081D4F8B84000BF00BF4046FDF746
:102D800047FA00BF00BF002CDBD100BF00BFFDF73A
:102D90003BFA804600BF00BF1A48056800BF00BF6D
:102DA0004046FDF735FA00BF00BF12E000BF00BF8C
:102DB000FDF72AFA804600BF00BF05F1200600207B
:102DC000B081AD6900BF00BF4046FDF721FA00BFEA
:102DD00000BF002DEAD102F0D5F902F0E7FB002098
:102DE0003880BDE8F08100001E0100203001002085
:102DF000440100206801002008010020182900205B
:102E000038010020FC000020F8B504460026694681
:102E1000324800F01BFDBDF8000018B1BDF80000FD
:102E20002080F8BD6A460021022000F07DFDBDF83B
:102E3000000018B1BDF800002080F2E700BF00BF1D
:102E4000FDF7E2F9064600BF00BF002024490860F4
:102E500000BF00BF3046FDF7DBF900BF00BF002513
:102E60002048006820490968884205D91D48006843
:102E70001D490968B0FBF1F525B91A4800680A2117
:102E8000B0FBF1F56A460021284600F04DFD694689
:102E9000124800F0DFF9BDF8000018B1BDF80000DD
:102EA0002080BEE700BF00BFFDF7AEF9064600BFB9
:102EB00000BF00200D490860094800680C490860FF
:102EC00001200C49087000BF00BF3046FDF7A0F993
:102ED00000BF00BF0020208000BFA2E7D42D00204B
:102EE0002001002038690008206900083001002016
:102EF000240100202C01002010B50348006810B107
:102F000001480068804710BDCC0000202DE9FF4F2C
:102F100087B004469046DDE91BA5DDE91496179FAE
:102F2000002003902CB947F2AD1028800BB0BDE80B
:102F3000F08FB8F1000F03D147F24F102880F5E76A
:102F40001EB946F62F602880F0E750480068874297
:102F500003D246F630602880E8E71698B84203D3DB
:102F600046F631602880E1E7B9F1400F03D346F21D
:102F700073202880DAE7B9F13F0F06D14448844234
:102F800003D046F273202880D0E7204601F0D4FD1C
:102F9000002028800AF0010090B10AF0020078B108
:102FA00005960020069008E000210598016005982C
:102FB000001D05900698401C06900698B842F3D371
:102FC000169806EB80000490CDE9007A3246404620
:102FD000049B0A9900F0D8FA0590C4F828800A9852
:102FE000E0620898206284F8379084F83890059859
:102FF00020600498A0601A98606066622764A4F854
:1030000044A04FF0000B08E0002104F1780040F8E4
:103010002B100BF1010000F0FF0BBBF1000FF3D000
:1030200004F16000189900F09DFF204600F036F88A
:1030300000BF00BFFDF7E8F8039000BF00BF94F8A1
:10304000370001F0CDF9204601F042FA204601F0A8
:1030500029FD10480088401C0E4908800E48007861
:10306000012807D000BF00BF0398FDF7D1F800BFCB
:1030700000BF5BE700BF00BF0398FDF7C9F800BFC2
:1030800000BFFFF737FD00BF50E7000034690008BC
:10309000582800203C010020DD00002010B5044627
:1030A0000348006818B1204601490968884710BDE7
:1030B000BC0000202DE9F04104460E464FF0000808
:1030C0005B48844204D147F24C103080BDE8F08167
:1030D0007CB900BF00BFFDF797F8804600BF00BF76
:1030E0005448046800BF00BF4046FDF791F800BF98
:1030F00000BF00BF00BFFDF787F8804600BF00BFDC
:1031000094F83600082860D2DFE800F004090E10B9
:10311000080A0F11204601F0F9F961E060E000BFF4
:10312000204602F003F85BE000BF00BF00BF94F848
:10313000340008283BD2DFE800F0040705080E0938
:103140000A0600BF00BF33E000BF00BF00BF20463B
:1031500001F069F82CE0206BC068456A15F8377FEC
:10316000204601F060F828786978373D884212D00F
:1031700095F8370094F8371088420CD1284600F0B3
:1031800045FF074695F83800B84202DA95F838004E
:1031900000E038460746002084F8340095F83700F0
:1031A000B84203D03946284601F006FC00E000BFD3
:1031B00000BF94F83600032803D094F8360007289F
:1031C00002D1204601F0B2FF0AE000BF00BF404636
:1031D000FDF71EF800BF00BF46F62D60308075E792
:1031E00000BFE06B10B1204600F0E0FE04F160008B
:1031F00000F096FE204600F021F8204601F06AFC1F
:103200000D480088401E0C490880204601F094FCBF
:10321000FF2084F8360000BF00BF4046FCF7F8FFEF
:1032200000BF00BF00203080FFF764FC00BF4DE707
:1032300058280020780100203C01002010B50446E9
:103240000348006818B1204601490968884710BD45
:10325000C000002070B504460D46002600BF00BF28
:10326000FCF7D2FF064600BF00BF1CB10D48006846
:1032700084420AD100BF00BF3046FCF7C9FF00BF3F
:1032800000BF47F25710288070BD00BF00BF304616
:10329000FCF7BEFF00BF00BF2946204601F0AAFC94
:1032A00000BFF1E77801002010B50446034800682C
:1032B00018B1204601490968884710BDC4000020A4
:1032C0002DE9F04780460E4614461D464FF0000992
:1032D0001EB1B6F5004F02D100E000BF05E045F693
:1032E000256028800020BDE8F08700BF0CB10020D9
:1032F000206000BF00BFFCF787FF814600BF00BF12
:103300005F480068C06CA8B35D480068C06C401E90
:103310005B490968C8645A480068C76C1CB15848C2
:103320000068806C2060FEF761FF55490968896C70
:10333000401A53490968C1F8A00051480068D0F804
:10334000A4004F490968D1F8A010884207D24C4820
:103350000068D0F8A0004A490968C1F8A40000BF7D
:1033600000BF4846FCF754FF00BF00BF0020288084
:103370003846B8E7FFE706F4004058B100BF00BF89
:103380004846FCF745FF00BF00BF46F2B01028805A
:103390000020A8E73B48007800280BDD00BF00BFF5
:1033A0004846FCF735FF00BF00BF46F66350288053
:1033B000002098E7434607220021084600F056FE09
:1033C00000BF00BF4846FCF723FF00BF00BFFFF768
:1033D00091FB00BF00BFFCF717FF814600BF00BF95
:1033E0002748006890F8350020B1012826D003282E
:1033F00034D12CE0FCB122480068806C2060FEF7DC
:10340000F5FE1F490968896C401A1D490968C1F811
:10341000A0001B480068D0F8A40019490968D1F839
:10342000A010884207D216480068D0F8A0001449BE
:103430000968C1F8A4000020288013E01CB11048DE
:103440000068806C206046F2A91028800AE00CB168
:103450000020206047F2D920288003E046F62E6045
:10346000288000BF00BF06480068C76C00BF00BFCF
:103470004846FCF7CDFE00BF00BF384633E70000EA
:1034800078010020100100202DE9F04106460D468C
:1034900014461DB1B5F5004F02D100E000BF05E0B4
:1034A00045F6256020800020BDE8F08100BFFEF7D2
:1034B0009DFE8046234642462946304601F026FCC2
:1034C00007463846F0E700002DE9F04704460E466F
:1034D00017461D464FF0000A26B946F2D52028802F
:1034E000BDE8F0871FB946F2D5202880F8E700BF75
:1034F00000BFFCF789FE824600BF00BF0CB921481F
:103500000468206868B900BF00BF5046FCF780FE21
:1035100000BF00BF00203060386047F252102880A2
:10352000DEE794F8440000F0010068B900BF00BF76
:103530005046FCF76DFE00BF00BF002030603860D1
:1035400047F254102880CBE700BF00BF5046FCF77D
:103550005FFE00BF00BF4FF00008D4F8249003E0E6
:1035600009F1040908F10108D9F800000028F7D092
:10357000C6F80080206CA0EB08003860002028808E
:1035800000BFADE778010020F0B50446DDE905563F
:1035900002EB850020F007004FF0807C071F3846C3
:1035A000C7F800C0071F38463C60DFF834C2071F69
:1035B0003846C7F800C04FF0123C071F3846C7F81E
:1035C00000C04FF0033C071F3846C7F800C04FF05B
:1035D000023C071F3846C7F800C0071F38463B604B
:1035E000071F384639604FF0113C071F3846C7F8AF
:1035F00000C04FF0103C071F3846C7F800C04FF01E
:10360000093C071F3846C7F800C04FF0083C071FA9
:103610003846C7F800C04FF0073C071F3846C7F8C8
:1036200000C04FF0063C071F3846C7F800C04FF0F7
:10363000053C071F3846C7F800C04FF0043C071F81
:103640003846C7F800C006F00407002F7ED04FF0C0
:10365000007C071F3846C7F800C0DFF888C1071F85
:103660003846C7F800C0DFF880C1071F3846C7F8E2
:1036700000C0DFF878C1071F3846C7F800C0DFF880
:1036800070C1071F3846C7F800C0DFF868C1071FC0
:103690003846C7F800C0DFF860C1071F3846C7F8D2
:1036A00000C0DFF858C1071F3846C7F800C0DFF870
:1036B00050C1071F3846C7F800C0DFF848C1071FD0
:1036C0003846C7F800C0DFF840C1071F3846C7F8C2
:1036D00000C0DFF838C1071F3846C7F800C0DFF860
:1036E00030C1071F3846C7F800C0DFF828C1071FE0
:1036F0003846C7F800C0DFF820C1071F3846C7F8B2
:1037000000C0DFF818C1071F3846C7F800C04FF0E7
:10371000834C071F3846C7F800C0DFF804C1071FF5
:103720003846C7F800C0DFF8FCC0071F3846C7F8A6
:1037300000C0DFF8F4C0071F3846C7F800C0DFF844
:10374000ECC0071F3846C7F800C000E047E0DFF8CC
:10375000E0C0071F3846C7F800C0DFF8D8C0071F11
:103760003846C7F800C0DFF8D0C0071F3846C7F892
:1037700000C04FF0824C071F3846C7F800C0DFF882
:10378000BCC0071F3846C7F800C0DFF8B4C0071F29
:103790003846C7F800C0DFF8ACC0071F3846C7F886
:1037A00000C04FF0814C071F3846C7F800C0DFF853
:1037B00098C0071F3846C7F800C04FF0804C071F5D
:1037C0003846C7F800C04FF07E5C071F3846C7F880
:1037D00000C04FF0000C071F3846C7F800C0F0BD0E
:1037E000F54C00080000F8410000F0410000E841FD
:1037F0000000E0410000D8410000D0410000C84175
:103800000000C0410000B8410000B0410000A841E4
:103810000000A04100009841000090410000884154
:103820000000704100006041000050410000404134
:103830000000304100002041000010410000E04045
:103840000000C0400000A0400000404070B50546A8
:103850000C460648854203D147F25B10208070BDBC
:103860002146284601F034FB00BFF8E75828002025
:1038700010B52948006890F8440000F0040020B119
:10388000254909680868FCF7FDFF2448006890F89E
:10389000440000F0040020B1204909680868FCF7E2
:1038A000FEFF1F48006810B11D4800688047FEF702
:1038B0009DFC04461848006818490968884215D0DC
:1038C00015480068D0F89400201A13490968C1F817
:1038D000900011480068D0F898000F490968D1F8A5
:1038E000901008440C490968C1F898000B4800681A
:1038F000C0F8944008480068D0F8B0000949096849
:10390000884205D20748006803490968C1F8B00039
:1039100000200449086010BD780100207C010020CF
:10392000D00000200C0100202DE9F04105460E4694
:103930001446002723480078002804DD46F663502B
:103940002080BDE8F08136B1022E05D0042E0AD0C9
:10395000082E09D101E000BF00BF1DB947F27E204B
:103960002080EEE704E003E045F625602080E8E7EC
:1039700000BF00BF00BFFCF747FC074600BF00BF09
:103980002346324629461048006801F071FB208822
:1039900038B100BF00BF3846FCF73AFC00BF00BF9B
:1039A000CFE70948006800F0B1FD00BF00BF38460E
:1039B000FCF72EFC00BF00BFFFF79CF80020208022
:1039C00000BFBEE710010020780100202DE9FF5F55
:1039D00005460E4617469846DDE90EA400200090E5
:1039E0005A480078002804DD46F663502080BDE880
:1039F000FF9F0AF00E0BBBF1000F09D0BBF1020FC5
:103A000007D0BBF1040F10D0BBF1080F0ED101E0BD
:103A100000BF00BFB8F1000F06D12FB926B91DB9FC
:103A200047F27E202080E2E704E003E045F62560CF
:103A30002080DCE700BF2AF01E0008B1012000E072
:103A4000002003900398012803D145F625602080CB
:103A5000CDE70AF01000102802D100BF012000E0DD
:103A6000002002900298012818D0B8F57A7F03D37D
:103A700047F27B202080BAE73B2F03DD47F27A2014
:103A80002080B4E73B2E03DD47F279202080AEE7AB
:103A9000632D12DD47F278202080A8E742F20F70F4
:103AA000864203DD47F279202080A0E7B5F57A7FD2
:103AB00003DB47F27820208099E72548D0F8009072
:103AC0004FF4FA70B0FBF9F0404400FB09F04FF4FA
:103AD0007A71B0FBF1F14FF461606843C6EB0612F6
:103AE00000EB8200384400FB09100190019838B3C4
:103AF00000BF00BFFCF788FB009000BF00BF23465B
:103B00005A4614480199006801F0B2FA208838B189
:103B100000BF00BF0098FCF77BFB00BF00BF66E75B
:103B20000C48006800F0F2FC00BF00BF0098FCF7F2
:103B30006FFB00BF00BFFEF7DDFF0020208002E02A
:103B400047F27E20208000BF51E7000010010020D6
:103B5000386900087801002008B500F01FF86A46AF
:103B600000210A48FFF790FC09480068401E0849F8
:103B700008600846006838B90648006808606A4668
:103B800000210548FFF780FC08BD0000E42C002060
:103B90007401002070010020D42D002010B50348CE
:103BA000006810B101480068804710BDD4000020B3
:103BB00010B5002400BF00BFFCF726FB044600BF81
:103BC00000BF08480078401C0649087000BF00BFCD
:103BD0002046FCF71DFB00BF00BFFFF7BDFFFEF74F
:103BE00035FD10BDDC00002001464A1E4FF0E023E9
:103BF0005A61084A106820F07F4000BF10601A46E2
:103C0000126942F005021A611A46126942F0020274
:103C10001A61704720ED00E0244A2549254A264ACA
:103C20002649274A2748284A284A294A294A2A4809
:103C30002A482B4A2B482C4A2C482D4A2D482E48DE
:103C40002E482F482F4A304A304A3148314A324AAA
:103C50003248334833483448344835483548364A82
:103C6000364A374A374A384838483948394A3A4A4A
:103C70003A4A3B483B483C483C493D483D4A3E4A1D
:103C80003E4A3F4A3F4A404A404A4148414A424AE6
:103C900042484348434A444A4448454A454A4648BC
:103CA000464800BF00BF00BF704700006C690008B5
:103CB000D46A00086D6900086E6900087069000820
:103CC000746900087869000875690008A06900082F
:103CD000A1690008A2690008A4690008A669000893
:103CE000AA690008AC690008CC690008CE69000820
:103CF000D0690008D2690008D4690008D6690008B4
:103D0000D8690008086A0008096A00080A6A0008F9
:103D10000C6A00080E6A00080F6A0008106A0008A2
:103D2000126A0008146A0008166A0008186A000877
:103D30001A6A00081C6A00084C6A00084D6A0008EC
:103D40004E6A00084F6A0008506A0008526A00086C
:103D5000546A00087C6A00087D6A00087E6A0008D0
:103D60007F6A0008806A0008826A0008846A000886
:103D7000886A0008896A00088A6A00088B6A000855
:103D80008C6A00088D6A00088E6A00088F6A000835
:103D9000906A0008926A0008936A0008946A000812
:103DA000966A0008986A0008996A00089C6A0008E8
:103DB000CC6A0008CD6A0008CE6A0008D06A000804
:103DC0000021034A1160034A1180018070470000FE
:103DD000E0000020E4000020002419E000BF00BF44
:103DE000FCF712FA044600BF00BF0A480068401CF6
:103DF0000849086008480068401C0749086000BF7F
:103E000000BF2046FCF704FA00BF00BFFEF738FBF6
:103E1000E4E70000D80000202001002010B58AB09F
:103E2000044600200E4908600B2000210591CDE9D1
:103E30000704069108460B4909680B4A12680B4BA8
:103E40001B68CDE90132CDE903103F200023084A69
:103E500008A100900C48FFF759F80AB010BD000007
:103E6000D8000020E0680008DC680008D868000876
:103E7000D93D000875432F4F532D494949204964C6
:103E80006C65205461736B00582800200021034AA0
:103E90001160034A1180018070470000E800002093
:103EA000EC00002070B501461A4D2D681DB945F291
:103EB0001E750D8070BD184D2D881DB945F21D75FC
:103EC0000D80F7E7134D28682A681032124D2D88AF
:103ED0006D1EACB2002308E002600025456005813C
:103EE000C560103010325D1CABB2A342F4DB00257C
:103EF000056045600581C560064D2D68074E35603B
:103F0000054D2D88B5800025F58035810D8000BFD9
:103F1000D0E700001869000810690008182900207F
:103F200010B5014648894B89002B17DD0A680C4BF8
:103F30001B6813600A4C4B6823602346DB884C895E
:103F40001B1B074CE38023469B884C892344044C6D
:103F5000A38000234B818B810B604B6010BD000060
:103F60001829002001810022428182810260426082
:103F70007047000009A1C161002141610849096839
:103F800011B90021816105E0054909688161044991
:103F9000096848610249086070470000200000007D
:103FA000F0000020C26B0A62C16370472DE9F8433C
:103FB0000546EC6B26E0D4F82090FEF717F906468C
:103FC000E6622146284600F037F804F10808B8F800
:103FD000080020B9002084F82800606211E0D8F8B9
:103FE000000087686562012084F828002146384671
:103FF000FFF7D8FF00231A4639462046009600F006
:104000004DF94C46002CD6D1BDE8F88330B50446B6
:104010003F2004F13C010BE00D68AB682BB19D68BB
:1040200095F83720824200DA10460D6805F120012C
:104030000D68002DF0D130BD024602F13C0002E0D7
:10404000036803F1200003688B42F9D103681B6AFF
:10405000036070470021034A1160034A1180018008
:1040600070470000F0000020F40000202DE9F0412E
:1040700005460C4616461F461548006880F8346011
:1040800000201349096881F8350039461048006856
:1040900000F07CFC6CB104F10808EC6001222946B8
:1040A0000B48006800F016F82946404600F088F8F2
:1040B00007E0002006490968A1F84600044909689C
:1040C000086303480168204600F018F8BDE8F08155
:1040D0007801002010B5A0F84620016300230AE013
:1040E00000244C600C600C614C610C83CC618860D6
:1040F00020315C1CA3B29342F2DB10BD30B548B155
:104100004568C1F8BC5000F10804226893681D6A34
:10411000C56113E091F83450022D02D0072D08D16B
:1041200003E007A5C1F8BC5007E007A5C1F8BC50E3
:1041300003E008A5C1F8BC5000BF00BF30BD0000BF
:104140005461736B205100005461736B2053656D93
:10415000000000002000000030B507A5C1F8BC50E9
:1041600000F1080422681AB193681D6AC56101E074
:1041700001A5C56130BD0000200000002DE9F0411F
:104180000446256BB4F8467011E0D5F80C8008F1B0
:1041900008063089012807D92946304600F05DF825
:1041A0002946304600F00CF82035781E87B2002FE3
:1041B000EBD1BDE8F08100210160416001817047D1
:1041C000F0B58E6896F8375007893FB90127078107
:1041D00000274F600F600160416023E007897F1C6A
:1041E0000781026806E0946894F83770AF4200DDFA
:1041F00002E05268002AF6D100BF32B900274F60B2
:1042000043680B60596041600CE017682FB911607A
:1042100000270F604A60016004E013680B604A6089
:1042200059601160F0BD2DE9F0410446256BB4F8EA
:1042300046600AE0D5F80C8008F1080729463846A0
:1042400000F00BF82035701E86B2002EF2DC002044
:10425000A4F846002063BDE8F08110B50489012C64
:1042600003D100240460446011E00C6824B94A685A
:104270000024146002600AE04C6824B90B68002432
:104280005C60436003E00B684A685A60136004890D
:10429000641E048100244C600C6010BD2DE9F843BD
:1042A00006460C4617469846089D94F8360008289E
:1042B0005BD2DFE800F0040508090607323300BFCF
:1042C00000BF00BF52E000BF94F83400032807D1BC
:1042D00043463A4621463046009500F04AF803E04E
:1042E000A765A4F85C80A56436B12046FFF79BFF64
:1042F00021463046FFF730FF94F83600032802D1FC
:10430000204600F013FF204600F0ACF800203434C3
:10431000A070607004F8340928E000BF94F83400FD
:10432000032807D143463A4621463046009500F01F
:1043300020F803E0A765A4F85C80A56436B12046A8
:10434000FFF771FF21463046FFF706FF94F836006D
:10435000072802D1204600F0E9FE04203434A07082
:104360000020607004F8340900E000BF00BFBDE821
:10437000F883F0B50446059E086BB1F846500AE094
:10438000C768A74204D1046142610383C66104E0A7
:1043900020306F1EBDB2002DF2DC00BFF0BD00006A
:1043A00070B50025074C03E005F12000C5B2241DBF
:1043B00020680028F8D02068FBF731FF2844C5B2F8
:1043C000284670BDB4000020002004E00021034A0C
:1043D00042F82010401C0228F8D37047B400002097
:1043E00030B5420900F01F030121C3F11F04A140B1
:1043F000034C54F822400C43014D45F8224030BD97
:10440000B400002030B5420900F01F030121C3F1C0
:104410001F04A140034C54F822408C43014D45F841
:10442000224030BDB40000200021034A1160034A3D
:104430001180018070470000FC0000200001002076
:1044400000210AE001EB4102054B03EB8200002250
:104450000281026042604A1CD1B24029F2D3704707
:104460002429002010B5044694F83700FFF7B8FF60
:1044700094F8370005490978884203D1204600F0B6
:1044800027F802E0204600F003F810BDF6000020F7
:1044900010B590F8373003EB43030C4C04EB830169
:1044A0000B893BB901230B810023C36003610860C2
:1044B000486009E00B895B1C0B810B68C36000231B
:1044C00003610A681061086010BD00002429002003
:1044D00010B590F8373003EB43030B4C04EB83012A
:1044E0000B893BB901230B810023C3600361086082
:1044F000486008E00B895B1C0B810023C3604A689D
:104500000261D060486010BD242900202DE9F041EF
:10451000054695F8370000EB4000124901EB800496
:104520002F69EE6887B946B900202081206060605D
:1045300095F83700FFF766FF0EE02089401E2081C6
:1045400000203061266007E02089401E2081FE6047
:104550000EB9676000E0376100202861E860BDE8BF
:10456000F08100002429002010B5044800780128BB
:1045700003D1FDF73BFE0249086010BD1001002089
:104580000401002010B50A48007880B9FDF72EFE1E
:1045900008490968441A08480068A04201D2064840
:1045A000046006480068A04201D20448046010BDBF
:1045B0001001002004010020080100200C0100204F
:1045C0000021034A1160034A1180018070470000F6
:1045D000140100201801002086B00020009006E0A1
:1045E000A8490968480001AA0021FFF79DF9A648DB
:1045F00000780128F4D101A8FEF772FB0027A34838
:104600000068A0490968884205D9A04800689D490A
:104610000968B0FBF1F727B99C4800680A21B0FB94
:10462000F1F72EE1FDF7E2FD804600BF00BFFBF78A
:10463000EBFD009000BF00BF9548006895490860F9
:1046400000209349086000BF00BF0098FBF7E0FD21
:1046500000BF00BF904800688E490968884248D969
:104660008D4800688D49884205D242F2107003904F
:104670000120029023E0884800688949884205D2D9
:104680004FF47A7003900A20029018E08248006884
:104690008449884203D26420039002900FE07E4850
:1046A00000688149884205D20A2003904FF47A704D
:1046B000029004E00120039042F2107002907648CC
:1046C00001680298B1FBF0FA7249039809684843FF
:1046D000B0FBFAF042F21071081A7449088074486D
:1046E00000880988884208DA704800887049088084
:1046F00003E042F210706D490880FEF7FDFB0025D3
:1047000000BF00BFFBF780FD009000BF00BF6948FD
:10471000046800BF00BF0098FBF77AFD00BF00BF30
:1047200026E000BF00BFFBF76FFD009000BF00BF99
:1047300054F8980F6060002044F8980900BF00BF4B
:104740000098FBF765FD00BF00BFD4F89C0005444E
:1047500000BF00BFFBF758FD009000BF00BFD4F8BA
:10476000B84000BF00BF0098FBF752FD00BF00BF7C
:10477000002CD6D145B34948854205D242F210708B
:1047800005904FF0010B1BE04548854205D24FF4E0
:104790007A7005904FF00A0B12E04248854203D22E
:1047A0006420059083460BE03F48854204D20A20EE
:1047B00005904FF47A7B03E00120059042F2107BD4
:1047C000B5FBFBF0049003E000200590012004906D
:1047D00000BF00BFFBF718FD009000BF00BF3548C9
:1047E000046800BF00BF0098FBF712FD00BF00BFC8
:1047F0002BE0D4F89C00059948430499B0FBF1F0F4
:1048000086B242F21070864200D90646A4F888604B
:10481000B4F88A00B04201DAA4F88A6001AB04F16E
:10482000A802111D2046FEF74FFE00BF00BFFBF798
:10483000EBFC009000BF00BFD4F8B84000BF00BF41
:104840000098FBF7E5FC00BF00BF002CD1D11A484F
:104850000078012805D100201749087001A8FEF74B
:104860003FFAFDF7C3FCA0EB08091448006848456F
:1048700002D21248C0F8009001AA00213846FFF782
:1048800053F8CFE6206900082C01002038690008A1
:10489000200100202801002024010020801A0600A9
:1048A00000093D00005A62020084D7171C01002055
:1048B0001E010020380100201A01002030010020D4
:1048C00010B58AB0044600201F4908601F490860DF
:1048D0001F4908601F4908701F4908701F48006879
:1048E00020B946F62B6020800AB010BD1C48006835
:1048F0001C490968884203D246F62C602080F3E701
:10490000194800783F2803D346F62A602080EBE759
:10491000032000210591CDE90704069108461049BE
:104920000968124A12680D4B1B68CDE90132CDE9C6
:1049300003100D48007800230D4A0EA10090124884
:10494000FEF7E4FA00BFCFE7200100202801002095
:10495000240100202C0100201A01002024690008F5
:104960002C690008346900081C69000828690008DF
:10497000D945000875432F4F532D49494920537499
:104980006174205461736B00242C002070B50446C0
:104990000D4645B12A462146064800F025FB032076
:1049A00084F8360002E0022084F836002046FFF743
:1049B000ADFD70BD500100202DE9F04104460D46CB
:1049C00000BF002694F8377094F8360008285FD2AC
:1049D000DFE800F004191E1F1A1B20212046FFF7F4
:1049E00095FD84F8375094F83700FFF7F9FC2C4810
:1049F0000068844203D12046FFF74AFD02E02046CA
:104A0000FFF766FD46E000BF00BF84F8375041E085
:104A100000BF00BF00BF84F8375094F83400082866
:104A200031D2DFE800F0300431050B06073200BF59
:104A300000BF00BF2046FFF7A1FB27E02046FFF79D
:104A40009DFB206BC068466AAF4205DD96F83700D3
:104A5000A84217DC002615E096F83700B84211D1BD
:104A60003046FFF7D3FA054696F83800A84202DA36
:104A700096F8380000E02846054696F83700A84228
:104A800000D1002602E000BF00BF00BF00BF01E070
:104A9000BDE8F08100BF3446002C92D100BFF7E79B
:104AA000780100200021C0F8B4100949096819B93B
:104AB0000021C0F8B81007E005490968C0F8B8102F
:104AC00003490968C1F8B400014908607047000053
:104AD00038010020D0F8B420D0F8B8104AB90D4BF6
:104AE000196011B10023C1F8B4300023C0F8B83008
:104AF0000FE029B90023C2F8B830C0F8B43008E09C
:104B0000C2F8B810C1F8B4200023C0F8B830C0F81B
:104B1000B4307047380100200021044A1160044A73
:104B20001180044A116001807047000038010020A4
:104B30003C0100203401002070B5044600202060B4
:104B4000A0606060E06020616061A061E06126A01B
:104B5000206200206062A062E062A064A065A4F808
:104B60005C00002104F16000FFF7FCF900202067E1
:104B70006067E067A4F88400C4F88000002506E0C0
:104B8000002104F1780040F82510681CC5B2002D02
:104B9000F6D000203434A061E0662067E06084F83D
:104BA0005200A06760672082E0612062A4F8540090
:104BB000A4F85600A065E065FDF718FB06462666DA
:104BC00000206066E06720706070A0704020E07098
:104BD00020710020A060C4F88000C4F8840004A004
:104BE000C4F88800343C70BD3F5461736B00000012
:104BF0002000000070B504460D46002600BF00BF2F
:104C0000FBF702FB064600BF00BF0020288094F897
:104C1000360008285ED2DFE800F0040506071227F8
:104C2000394B00BF00BF00BF00BF00BF3046FBF7DD
:104C3000EFFA00BF00BF47F25310288055E014F888
:104C4000860F401E207014F8860928B9002084F8C9
:104C500036002046FFF706FC00BF00BF3046FBF7DA
:104C6000D7FA00BF00BF40E014F8860F401E207046
:104C700014F8860910B9012084F8360000BF00BF7F
:104C80003046FBF7C5FA00BF00BF2EE014F8860FD0
:104C9000401E207014F8860910B9022084F83600EE
:104CA00000BF00BF3046FBF7B3FA00BF00BF1CE0F7
:104CB00014F8860F401E207014F8860910B90320DE
:104CC00084F8360000BF00BF3046FBF7A1FA00BFF2
:104CD00000BF0AE000BF00BF3046FBF799FA00BFF3
:104CE00000BF46F62D60288070BD00BFFDF702FFB3
:104CF00000BFF9E708B504480068FEF7D5FA694631
:104D00000020FEF7D7F908BD780100202DE9F8430F
:104D10000446884617461D464FF0000900BF00BFF5
:104D2000FBF772FA814600BF00BF0CB96748046800
:104D3000A7640020288094F83600082876D2DFE89F
:104D400000F0040550510607525300BF00BF00BFDA
:104D50000420012804D0022813D0042833D122E0F3
:104D6000E06CFF280CD100BF00BF4846FBF750FAAB
:104D700000BF00BF46F6C55028800020BDE8F8837C
:104D800022E04FF6FF71E06C88420BD100BF00BFFC
:104D90004846FBF73DFA00BF00BF46F6C5502880E5
:104DA0000020EBE710E0E06C401C58B900BF00BFEA
:104DB0004846FBF72DFA00BF00BF46F6C5502880D5
:104DC0000020DBE700E000BF00BFE06C401CE064B7
:104DD000E66C00BF00BF4846FBF71AFA00BF00BFF1
:104DE00071E000BF00BF00BF94F83400072815D160
:104DF00000231A46214618460097FFF74FFAE66C43
:104E000000BF00BF4846FBF703FA00BF00BF08F42D
:104E1000004000284AD1FDF76DFE47E0042001283C
:104E200005D0022813D0042833D122E03FE0E06C03
:104E3000FF280BD100BF00BF4846FBF7E9F900BFD0
:104E400000BF46F6C5502880002097E722E04FF6C5
:104E5000FF71E06C88420BD100BF00BF4846FBF7F2
:104E6000D7F900BF00BF46F6C5502880002085E76F
:104E700010E0E06C401C58B900BF00BF4846FBF78B
:104E8000C7F900BF00BF46F6C5502880002075E76F
:104E900000E000BF00BFE06C401CE064E66C00BFB7
:104EA00000BF4846FBF7B4F900BF00BF0BE000BFEE
:104EB00000BF4846FBF7ACF900BF00BF46F62D60C7
:104EC0002880002600BF00BF304657E77801002049
:104ED00070B504460D46002600BF00BFFBF794F9ED
:104EE000064600BF00BF0CB93D4804683C48006856
:104EF00084420ED13B48007800280ADD00BF00BF85
:104F00003046FBF785F900BF00BF46F663502880A6
:104F100070BD0020288094F83600082850D2DFE8C1
:104F200000F0041523313F404142042084F836004C
:104F3000012084F886002046FFF7E8FA00BF00BF92
:104F40003046FBF765F900BF00BF44E0052084F858
:104F50003600012084F8860000BF00BF3046FBF712
:104F600057F900BF00BF36E0062084F83600012064
:104F700084F8860000BF00BF3046FBF749F900BF48
:104F800000BF28E0072084F83600012084F886005E
:104F900000BF00BF3046FBF73BF900BF00BF1AE07F
:104FA00000BF00BF00BF94F88600401C84F8860054
:104FB00000BF00BF3046FBF72BF900BF00BF0AE07F
:104FC00000BF00BF3046FBF723F900BF00BF46F625
:104FD0002D6028809CE700BFFDF78CFD00BF97E7A0
:104FE000780100201001002070B51546066846B90A
:104FF0000D6500264E618E61C861016001268680C4
:1050000033E0046802682B4624E0166D9E421DD3EF
:1050100096696EB90B6500268E614A61C861166D8E
:10502000F61A1665916101608688761C86800CE010
:1050300094690B658C614A61C861166DF61A166534
:10504000916161618688761C868070BD166D9B1BA0
:1050500014465269002AD8D10B658C6100264E6136
:10506000C86161618688761C868000BFEDE700001C
:105070002DE9F04104460D4690461F46B8F1040F55
:105080000ED1284800682E1A16F5803F01D8002E50
:105090003CD10020206547F27E203880BDE8F081B9
:1050A000B8F1080F29D11F49606D0968081AA84294
:1050B00005D92E461B4800682844606526E019493A
:1050C000606D0968081A2E1A16F5803F00D886B957
:1050D0001449606D0968081AB0FBF5F005FB005033
:1050E000616D084460650020206547F27E203880AD
:1050F000D4E7606D2844606508E00DB12E4605E0F8
:105100000020206547F27E203880C7E7012084F820
:105110003600324621460448FFF766FF00203880FB
:1051200000BFBBE7400100204801002030B5C26944
:1051300083694169ABB929B900241460948004657E
:10514000C4611EE000248C610C6D056D2C440C655F
:1051500011609488641E9480002444610465C461D5
:105160000FE0596121B18B610C6D056D2C440C650C
:10517000002484619488641E948000244461046542
:10518000C46130BD704700002DE9F0474FF00009C1
:1051900000BF00BFFBF738F8814600BF00BFFDF736
:1051A00025F8064600271D4D2C683CB3206D401E97
:1051B00020651FE0781C87B294F83600012806D1DC
:1051C000002084F836002046FFF74CF906E094F8FA
:1051D0003600052802D1042084F836006069286072
:1051E0002C6814B90020A88007E0A888401EA88079
:1051F0000020A061206D0028DCD000BFEF80FCF70C
:10520000F5FFA0EB060800BF00BF4846FBF700F81B
:1052100000BF00BF4046BDE8F08700004801002005
:105220002DE9F05F4FF0000B00BF00BFFAF7ECFF75
:10523000834600BF00BFFCF7D9FF07464FF00008C8
:105240003B4D2C68002C63D0206D401E20655BE038
:1052500008F101001FFA80F8002694F834000428B1
:1052600002D1206BC068466A0020A065A4F85C00EB
:10527000FCF7BCFFA0642046FEF7D5FF94F836008B
:10528000032806D12046FFF7EDF8002084F8360009
:1052900006E094F83600072802D1042084F836008E
:1052A000032084F83500002084F8340006B396F813
:1052B000370096F8381088421AD096F8370094F8DC
:1052C0003710884214D13046FEF7A0FE814696F88A
:1052D0003800484502DA96F8380000E04846814632
:1052E00096F83700484503D049463046FFF764FB3F
:1052F000606928602C6814B90020A88007E0A8889D
:10530000401EA8800020A061206D0028A0D000BF12
:10531000A5F80680FCF76AFFA0EB070A00BF00BFF4
:105320005846FAF775FF00BF00BF5046BDE8F09F32
:105330005001002008B5002728E06B4600221146E6
:105340001046FDF7BDFFBDF80000F8B900BF00BF73
:10535000FAF75AFF074600BF00BF0D480068401C1F
:105360000B49086000BF00BF3846FAF751FF00BF85
:1053700000BFFFF709FF0646FFF752FF0546741905
:1053800004480068A04201D202480460D5E700004A
:10539000400100204401002010B58AB004460020DE
:1053A0002049086020490860204908601E4988801B
:1053B000C8801E498880C8801D48006820B947F20F
:1053C000122020800AB010BD1A4800681A490968E6
:1053D000884203D247F213202080F3E71748007871
:1053E0003F2803D347F211202080EBE70B20002158
:1053F0000591CDE90704069108460E490A6810494F
:1054000009680B4B1B68CDE90131CDE903200B483E
:10541000007800230B4A0CA100901048FDF776FDA0
:1054200000BFCFE7400100204801002050010020CC
:105430004069000848690008346900083C690008B0
:10544000446900083553000875432F4F532D4949CF
:1054500049205469636B205461736B00E42C002075
:1054600010B58AB0044600202F4908602F49086013
:105470002F4908802F48006840B12F4800682D4907
:105480000968B0FBF1F02D49086006E02A48006881
:105490000A21B0FBF1F02949086028480068284932
:1054A000086000202749086027490860224627A194
:1054B0002A48FDF739F9208808B10AB010BD2848FC
:1054C000006818B947F247302080F6E725480068A1
:1054D00025490968884203D247F248302080ECE72A
:1054E000224800783F2803D347F246302080E4E783
:1054F0000B20002105910A46CDE9070406911948C1
:1055000000681B490968164B1B68CDE90131CDE9DC
:105510000302164800780023164A17A100901C4881
:10552000FDF7F4FC00BFC8E758010020600100202F
:105530005C010020546900083869000870010020EF
:10554000740100206C010020680100204F5320549A
:105550006D72204D7574657800000000A42D002048
:10556000586900086069000834690008506900083B
:105570005C690008B155000875432F4F532D494908
:10558000492054696D6572205461736B00000000FE
:10559000D42D00200EB502A801AB002211460090C8
:1055A0000148FDF7F9F80EBDA42D0020704700005A
:1055B0001CB53FE001AB6A4600210846FDF780FEBE
:1055C000FFF7E8FFFCF712FE06461B480068401C88
:1055D00019490860194804681FE001A8FDF7DCFAC2
:1055E000D4F81080A069401EA061A06980B9A08C89
:1055F000022802D1206AA06105E0204600F022F8CE
:10560000032084F82600A56815B12046E168A84764
:10561000444601A8FDF7F0FA00BF002CDDD1FCF7ED
:10562000E5FD871B00F030F805480068B84201D25C
:1056300003480760BEE700006C0100206001002005
:105640006801002010B50E4B1B68834206D101692A
:105650000B4B196039B100234B6104E041690269C9
:105660000A6102B15161012380F8263000230361F1
:105670004361044B1B885B1E024C238010BD00005D
:10568000600100205C01002008B56A460021024844
:10569000FDF76AF908BD0000A42D0020F0B5002137
:1056A00000220024022500260223324F3F6807F023
:1056B0000C0121B1042905D0082937D105E02E4F6E
:1056C000076036E02D4F076033E02A4F3F1F3F68E9
:1056D000C7F38056274F3F1F3F6807F03F036EB167
:1056E000264FB7FBF3F7DFF88CC0ACF1040CDCF805
:1056F00000C0CCF3881C07FB0CF40CE01E4FB7FB7A
:10570000F3F7DFF870C0ACF1040CDCF800C0CCF3A8
:10571000881C07FB0CF4174F3F1F3F68C7F3014776
:105720007F1C7D00B4FBF5F7076002E0124F0760B5
:1057300000BF00BF0F4F3F6807F0F0010909104F8D
:105740007A5C0768D74047600A4F3F6807F4E0512A
:10575000890A0B4F7A5C4768D7408760054F3F68DE
:1057600007F46041490B064F7A5C4768D740C76031
:10577000F0BD0000083802400024F40000127A0056
:10578000960000200149086070470000E011474280
:1057900021B1028842F08002028004E002884FF6C4
:1057A0007F731A400280704721B1028842F00102E3
:1057B000028004E002884FF6FE731A4002807047B0
:1057C00031B1B0F8442042F40042A0F8442005E092
:1057D000B0F84420C2F30E02A0F844207047000045
:1057E00070B5002400220023058C4FF6FE7635406C
:1057F0000584028C8388048B4FF68F752C40B51E70
:105800002C400D882C43751E2A408D892A434D88D3
:105810002A43104DA84202D00F4DA84213D14FF693
:10582000F7752A40CD892A434FF6FB752A408D88AB
:105830002A434FF6FF652B404FF6FF552B400D8A4C
:105840002B434D8A2B43838004838D6845630284F8
:1058500070BD000000000140000401400A46002124
:10586000018B4FF6F7731940114301837047000015
:1058700070B5002400220023058C4FF6EF763540EA
:105880000584028C8388048B48F6FF752C404FF604
:10589000FF452C400D884FF6FF7606EA05252C4380
:1058A0004FF6DF752A408D8906EA05152A434D8893
:1058B00006EA05152A43154DA84202D0144DA84208
:1058C0001DD14FF67F752A40CD894FF6FF7606EA47
:1058D00005152A434FF6BF752A408D8806EA05153F
:1058E0002A434FF6FF352B404FF2FF752B400D8AB0
:1058F00006EA85052B434D8A06EA85052B438380FE
:1059000004838D688563028470BD0000000001403F
:105910000004014070B5002400220023058C4FF6DE
:10592000FF6635400584028C8388848B4FF68F7523
:105930002C404FF6FC752C400D882C434FF6FF553C
:105940002A408D894FF6FF7606EA05252A434D88C1
:1059500006EA05252A43154DA84202D0144DA84257
:105960001DD14FF2FF752A40CD894FF6FF7606EA2A
:1059700005252A434FF6FF352A408D8806EA05257E
:105980002A434EF6FF752B404DF6FF752B400D8ACE
:1059900006EA05152B434D8A06EA05152B4383803D
:1059A00084838D68C563028470BD000000000140DF
:1059B0000004014070B5002200230024058C4EF63F
:1059C000FF7635400584038C8488828B48F6FF750A
:1059D0002A404FF6FF452A400D884FF6FF7606EA2B
:1059E00005252A434DF6FF752B408D8906EA0535BE
:1059F0002B434D8806EA05352B430A4DA84202D0B9
:105A0000094DA84208D14BF6FF752C400D8A4FF680
:105A1000FF7606EA85152C43848082838D680564B1
:105A2000038470BD000001400004014041637047E1
:105A300081637047C1637047016470470022028828
:105A4000184B98420ED0184B98420BD0B0F1804FB3
:105A500008D0164B984205D0154B984202D0154BF2
:105A6000984204D14FF68F731A404B881A43124B59
:105A7000984207D0114B984204D04FF6FF431A408A
:105A80000B891A4302804B68C3620B880385054B60
:105A9000984202D0044B984201D18B7A03860123AD
:105AA0008382704700000140000401400004004070
:105AB00000080040000C00400010004000140040AE
:105AC00003B401984100009850EAC12018BF042097
:105AD0004A0D18BF40F0010040F2FF72B2EB515F77
